:020000040000FA
:040000002AEF00F0F3
:08000800806FD8CF81F0E0CF3A
:1000100082F0F2A41BEF00F0F294830ED66E842FD0
:100020001BEF00F07D0E846F832F1BEF00F0020E9C
:10003000836F8294828282C0E0FF805181C0D8FFAA
:100040001000F294830ED66E7D0E846FF28E120035
:10005000F29E1200020E836F816A826A0E0E936E08
:10006000000E946EC60ED56E200EF26E828281B4A2
:100070003FEF00F03CEF00F0829642EF00F0828606
:1000800042EF00F081B247EF00F04BEF00F028ECB8
:1000900000F037EF00F081B652EF00F050EF00F0C3
:1000A00037EF00F08292828421EC00F037EF00F00D
:00000001FF
